:100000000C94A7000C94C4000C94C4000C94C4007D
:100010000C94C4000C94C4000C94C4000C94C40050
:100020000C94C4000C94C4000C94C4000C94C40040
:100030000C94C4000C94C4000C94C4000C94C40030
:100040000C94C4000C94C4000C94C4000C94C40020
:100050000C94C40000407A10F35A00A0724E1809A4
:100060000010A5D4E80000E87648170000E40B541F
:10007000020000CA9A3B000000E1F50500008096EE
:100080009800000040420F000000A0860100000020
:10009000102700000000E8030000000064000000DA
:1000A00000000A00000000000100000000002C76A3
:1000B000D888DC674F0823DFC1DFAE59E1B1B796BE
:1000C000E5E3E453C63AE651997696E8E6C284261B
:1000D000EB898C9B62ED407C6FFCEFBC9C9F40F2F7
:1000E000BAA56FA5F490055A2AF75C936B6CF96773
:1000F0006DC11BFCE0E40D47FEF520E6B500D0ED38
:10010000902E0300943577050080841E080000209F
:100110004E0A000000C80C333333330F986E12833D
:100120001141EF8D2114893BE65516CFFEE6DB1811
:10013000D1844B381BF77C1D901DA4BBE4242032D6
:1001400084725E228100C9F124ECA1E53D271124CF
:100150001FBECFE5D8E0DEBFCDBF10E0A0E6B0E027
:10016000EEEDFFE002C005900D92AE36B107D9F773
:1001700021E0AEE6B0E001C01D92A633B207E1F780
:100180000E9425040C94ED070C940000672B09F0E5
:100190009FC0009711F4D89808958130910511F40B
:1001A000D99808958230910511F4DA980895833032
:1001B000910511F4DB9808958430910511F4DC98D1
:1001C00008958530910511F4DD98089586309105E4
:1001D00011F4DE9808958730910511F4DF980895A1
:1001E0008A30910511F4C09808958B30910511F46F
:1001F000C19808958C30910511F4C29808958D30FE
:10020000910511F4C39808958E30910511F4C498A6
:1002100008958F30910511F4C598089580319105A6
:1002200011F4C69808958131910511F4C798089585
:100230008431910511F4A89808958531910511F440
:10024000A99808958631910511F4AA9808958731E7
:10025000910511F4AB9808958831910511F4AC988B
:1002600008958931910511F4AD9808958A31910569
:1002700011F4AE9808958B31910511F4AF9808955B
:100280008E31910511F4909808958F31910511F4F4
:10029000919808958032910511F4929808958132D1
:1002A000910511F4939808958232910511F4949870
:1002B00008958332910511F495980895843291053B
:1002C00011F496980895859709F09FC0979808951E
:1002D000009711F4D89A08958130910511F4D99AB4
:1002E00008958230910511F4DA9A089583309105CA
:1002F00011F4DB9A08958430910511F4DC9A089585
:100300008530910511F4DD9A08958630910511F438
:10031000DE9A08958730910511F4DF9A08958A30A6
:10032000910511F4C09A08958B30910511F4C19A8A
:1003300008958C30910511F4C29A08958D3091057D
:1003400011F4C39A08958E30910511F4C49A08955A
:100350008F30910511F4C59A08958031910511F4FB
:10036000C69A08958131910511F4C79A0895843190
:10037000910511F4A89A08958531910511F4A99A6F
:1003800008958631910511F4AA9A0895873191054F
:1003900011F4AB9A08958831910511F4AC9A08953F
:1003A0008931910511F4AD9A08958A31910511F4BE
:1003B000AE9A08958B31910511F4AF9A08958E315C
:1003C000910511F4909A08958F31910511F4919A45
:1003D00008958032910511F4929A08958132910521
:1003E00011F4939A08958232910511F4949A089524
:1003F0008332910511F4959A08958432910511F490
:10040000969A0895859709F4979A0895CF93C82FDF
:1004100080FF03C061E070E002C060E070E080E057
:1004200090E00E94C600C1FF03C061E070E002C01E
:1004300060E070E081E090E00E94C600C2FF03C06F
:1004400061E070E002C060E070E082E090E00E9455
:10045000C600C3FF03C061E070E002C060E070E06E
:1004600083E090E00E94C600C4FF03C061E070E03A
:1004700002C060E070E082E290E00E94C600C5FF2A
:1004800003C061E070E002C060E070E083E290E0F1
:100490000E94C600C6FF03C061E070E002C060E0D9
:1004A00070E084E290E00E94C600C7FF03C061E0F4
:1004B00070E002C060E070E085E290E0CF910C94C3
:1004C000C600CF93C82F60E070E08AE190E00E9400
:1004D000C6008C2F0E94060261E070E08BE190E084
:1004E0000E94C6008FE99FE00197F1F700C000006D
:1004F00060E070E08BE190E00E94C6008FE99FE031
:100500000197F1F700C00000CF91089581E00C94AD
:100510006102813011F480E803C0823021F480EC64
:10052000860F0C946102089560E070E08AE190E02B
:100530000E94C60060E070E08BE190E00E94C6007F
:100540002FEF89EF90E0215080409040E1F700C00C
:10055000000080E30E9461028FE19EE40197F1F7C1
:1005600000C0000080E30E9461028FE99FE00197D4
:10057000F1F700C0000080E30E9461028FE39CE974
:100580000197F1F700C0000088E30E9461028CE04F
:100590000E94610281E00E94610286E00C94610287
:1005A000CF93C82F61E070E08AE190E00E94C6001E
:1005B0008C2F0E94060261E070E08BE190E00E94C7
:1005C000C6008FE99FE00197F1F700C0000060E0EE
:1005D00070E08BE190E00E94C6008FE99FE00197F8
:1005E000F1F700C00000CF910895CF93DF93EC01A5
:1005F0008991882319F00E94D002FACFDF91CF9120
:1006000008958CE10C94610288E10C946102CF930F
:10061000C82F80FF03C061E070E002C060E070E0BE
:1006200082E290E00E94C600C1FF03C061E070E07A
:1006300002C060E070E083E290E00E94C600C2FF6A
:1006400003C061E070E002C060E070E084E290E02E
:100650000E94C600C3FF03C061E070E002C060E01A
:1006600070E085E290E0CF910C94C600CF93C82F44
:1006700060E070E08AE190E00E94C6008C2F0E944A
:10068000070361E070E08BE190E00E94C6008FE913
:100690009FE00197F1F700C0000060E070E08BE19F
:1006A00090E00E94C6008FE99FE00197F1F700C03B
:1006B0000000CF91089580E00E94360381E00C9401
:1006C0003603CF93C62F813011F480E803C0823007
:1006D00069F480EC8C0F85958595859585950E94AC
:1006E00036038C2F8F70CF910C943603CF910895E1
:1006F00080E00E9407032FEF89EF90E021508040B7
:100700009040E1F700C0000083E00E9436038FE1D3
:100710009EE40197F1F700C0000083E00E943603D9
:100720008FED9BEA0197F1F700C0000083E00E9483
:10073000360382E00E94360382E00E94360388E09E
:100740000E94360380E00E9436038CE00E9436034C
:1007500080E00E94360386E00C943603CF93C82FC6
:1007600061E070E08AE190E00E94C6008C2F8595E0
:100770008595859585950E94070361E070E08BE182
:1007800090E00E94C6008FE99FE00197F1F700C05A
:10079000000060E070E08BE190E00E94C6008FE90D
:1007A0009FE00197F1F700C000008C2F8F700E942E
:1007B000070361E070E08BE190E00E94C6008FE9E2
:1007C0009FE00197F1F700C0000060E070E08BE16E
:1007D00090E00E94C6008FE99FE00197F1F700C00A
:1007E0000000CF910895CF93DF93EC018991882386
:1007F00019F00E94AE03FACFDF91CF91089581E006
:100800000E9436038CE00C94360381E00E9436038C
:1008100088E00C94360384E886B910BE80E487B97A
:1008200008958FE39CE90197F1F700C00000369A24
:100830003699FECF64B185B170E0782B072E000C9D
:10084000880B990B0E946B040895CF93DF93CDB76B
:10085000DEB72A970FB6F894DEBF0FBECDBF8FEF7D
:1008600081BB84BB0E9478030E945B030E940B043F
:1008700088EF0E94360381E00E94360380E690E014
:100880000E94F3030E94110420E030E040EA50E4AB
:100890000E94A6046B017C0162E082E00E94610379
:1008A00020E030E040E85AE3C701B6010E94A60408
:1008B0008E010F5F1F4F23E044E00E946405C801D2
:1008C0000E94F3038FE39CE90197F1F700C0000059
:1008D000CFCFE89409C097FB3EF490958095709532
:1008E00061957F4F8F4F9F4F9923A9F0F92F96E97C
:1008F000BB279395F695879577956795B795F111F1
:10090000F8CFFAF4BB0F11F460FF1BC06F5F7F4F8D
:100910008F4F9F4F16C0882311F096E911C077239F
:1009200021F09EE8872F762F05C0662371F096E8A8
:10093000862F70E060E02AF09A95660F771F881F77
:10094000DAF7880F9695879597F908950E94B9046C
:100950000C942A050E941C0538F00E94230520F003
:10096000952311F00C9413050C94190511240C9483
:100970005E050E943B0570F3959FC1F3950F50E013
:10098000551F629FF001729FBB27F00DB11D639F41
:10099000AA27F00DB11DAA1F649F6627B00DA11DE7
:1009A000661F829F2227B00DA11D621F739FB00D8D
:1009B000A11D621F839FA00D611D221F749F3327FD
:1009C000A00D611D231F849F600D211D822F762F96
:1009D0006A2F11249F5750409AF0F1F088234AF073
:1009E000EE0FFF1FBB1F661F771F881F91505040DF
:1009F000A9F79E3F510580F00C9413050C945E05F9
:100A00005F3FE4F3983ED4F3869577956795B79565
:100A1000F795E7959F5FC1F7FE2B880F911D96957F
:100A2000879597F9089597F99F6780E870E060E0EF
:100A300008959FEF80EC089500240A941616170677
:100A400018060906089500240A94121613061406BF
:100A500005060895092E0394000C11F4882352F022
:100A6000BB0F40F4BF2B11F460FF04C06F5F7F4FDA
:100A70008F4F9F4F089557FD9058440F551F59F0C1
:100A80005F3F71F04795880F97FB991F61F09F3F7B
:100A900079F087950895121613061406551FF2CFA4
:100AA0004695F1DF08C0161617061806991FF1CFF4
:100AB00086957105610508940895E894BB2766271B
:100AC0007727CB0197F90895EF920F931F93CF9358
:100AD000DF93E80147FD02C034E001C034E1042E99
:100AE000000C550B57FF03C0519541955109E32E5A
:100AF000022F242FAE010E948405CE01DF91CF91F9
:100B00001F910F91EF900895A9E0B0E0EAE8F5E0B9
:100B10000C94BC076A01122FB02E2BE3201720F093
:100B2000FF24F394F00E02C02CE3F22E0F2D27E0E9
:100B3000AE014F5F5F4F0E94DE06BC014981842FEA
:100B40008970813031F0E1FC06C0E0FE06C090E221
:100B500005C09DE203C09BE201C090E05E2D507194
:100B600043FF3CC0911102C083E001C084E08117C3
:100B700018F4212F281B01C020E051110BC0F601F1
:100B8000822F30E2882319F031938150FBCFC20EBF
:100B9000D11C20E0992329F0D6019C93F6013196CF
:100BA0006F01C6010396E2FE0AC03EE4D6013C9303
:100BB00041E411964C93119712963C9306C03EE681
:100BC000F601308341E641833283FC01322F40E25B
:100BD000332309F442C041933150FACF42FF44C05D
:100BE000911102C083E001C084E0811718F4212F25
:100BF000281B01C020E051110BC0F601822F30E20A
:100C0000882319F031938150FBCFC20ED11C20E014
:100C1000992329F0D6019C93F60131966F01C60104
:100C20000396E2FE0BC039E4D6013C933EE41196F4
:100C30003C93119736E412963C9307C039E6F601CF
:100C400030833EE6318336E63283FC01322F40E2C8
:100C5000332319F041933150FBCFFC01E20FF11D1A
:100C600010828EEF9FEFA6C021E030E0911102C00C
:100C700020E030E0161617061CF4FB01319602C086
:100C8000E1E0F0E02E0F3F1FBB2021F0EB2DF0E064
:100C9000319602C0E0E0F0E02E0F3F1FE12FF0E0C0
:100CA0002E173F071CF4121B212F01C020E08E2DB0
:100CB000887159F4F601822F30E2882319F03193BC
:100CC0008150FBCFC20ED11C20E0992329F0D60120
:100CD0009C93F60131966F0151110BC0F601822FE2
:100CE00090E3882319F091938150FBCFC20ED11C61
:100CF00020E00F2D060F9A81342F307144FF03C07E
:100D0000913309F40150101624F4093018F008E06A
:100D100001C001E0AB0177FF02C040E050E0FB0101
:100D2000E41BF50BA1E0B0E0AC0FBD1FEA0FFB1F09
:100D30008EE2A82E4B01801A91080B2D10E0119520
:100D4000019511094F3FBFEF5B0721F4D601AC922B
:100D500011966D01641775072CF08416950614F42E
:100D6000818101C080E3415051093196D60111962D
:100D70007D014017510724F0D6018C936701E2CF23
:100D80006417750739F4963320F4953319F431114B
:100D900001C081E3F6018083F701822F90E288236E
:100DA00019F091938150FBCFF701E20FF11D1082F2
:100DB00080E090E02996ECE00C94D807283008F009
:100DC00027E03327DA01990F311D87FD91600096E6
:100DD0006105710539F432602E5F3D9330E32A9549
:100DE000E1F708959F3F30F080387105610509F003
:100DF0003C5F3C5F3D93913008F08068911DDF932C
:100E0000CF931F930F93FF92EF92192F987F969590
:100E1000E92F96959695E90FFF27E255FF4F992701
:100E20003327EE24FF24A701E701059008940794D7
:100E300028F4360FE71EF81E491F511D660F771F55
:100E4000881F991F0694A1F70590079428F4E70ED0
:100E5000F81E491F561FC11D770F881F991F661F57
:100E60000694A1F70590079428F4F80E491F561F21
:100E7000C71FD11D880F991F661F771F0694A1F702
:100E80000590079420F4490F561FC71FD81F990FCC
:100E9000661F771F881F0694A9F784911095177015
:100EA00041F0D695C79557954795F794E7941A95CD
:100EB000C1F7E4E5F0E068941590159135916591DE
:100EC000959105907FE27395E118F10A430B560B5B
:100ED000C90BD009C0F7E10CF11E431F561FC91FF3
:100EE000D01D7EF4703311F48A95E6CFE89401505A
:100EF00030F0080F0AF40027021708F4202F23957A
:100F0000022F7A3328F079E37D932A95E9F710C010
:100F10007D932A9589F60694979567953795179549
:100F20001794E118F10A430B560BC90BD00998F03E
:100F300023957E9173957A3308F070E37C932013A8
:100F4000B8F77E9170617D9330F0839571E37D9366
:100F500070E32A95E1F71124EF90FF900F911F9114
:100F6000CF91DF91992787FD909508952F923F9219
:100F70004F925F926F927F928F929F92AF92BF92A9
:100F8000CF92DF92EF92FF920F931F93CF93DF9355
:100F9000CDB7DEB7CA1BDB0B0FB6F894DEBF0FBEB2
:100FA000CDBF09942A88398848885F846E847D84FF
:100FB0008C849B84AA84B984C884DF80EE80FD8001
:100FC0000C811B81AA81B981CE0FD11D0FB6F89477
:0E0FD000DEBF0FBECDBFED010895F894FFCF38
:0E0FDE004144432056414C5545203A20000026
:00000001FF
